:020000002928AD
:10000800FF00030E8301D0000A08CF008A018B1C71
:100018000F288B10A20A4F088A00500E8300FF0E8B
:040028007F0E09003E
:0E002C00831203134E088A004D08820008005C
:10003A0016208A110A128000840ACD0A0319CE0AF0
:08004A00F003031D1D2808004E
:100052007C21831603138701880185010130860004
:10006200890107309F008B170B160113831287013A
:1000720088018501860189018618E628B4013408C1
:10008200173C031C9228861C472892283408353EC8
:1000920084000008870003303407F000F1010318E0
:1000A200F10A7008353E8400000888000930850096
:1000B200043089000630FB001330FC00AD30FD0037
:1000C200FD0B6128FC0B6128FB0B6128000000007E
:1000D2000808003A031D90283408173C031C902896
:1000E2003408353EF000700884000008870070086C
:1000F200840000088800093085000230890006303B
:10010200FB001330FC00AD30FD00FD0B8628FC0B1C
:100112008628FB0B862800000000B40A6D28B40A6A
:100122004028A30123080F3C031CE528861C9A28BB
:10013200E52803302307F000F1010318F10A7008E3
:10014200243E8400000887002308243E840000081F
:1001520088000C308500013089000630FB00133026
:10016200FC00AD30FD00FD0BB428FC0BB428FB0BEA
:10017200B428000000000708003A031DE328230802
:100182000F3C031CE3282308243EF000700884007F
:100192000008870070088400000888000A30850083
:1001A200013089000630FB001330FC00AD30FD0049
:1001B200FD0BD928FC0BD928FB0BD9280000000025
:1001C200A30AC028A30A93283D28861C472922088F
:1001D200013A031DF0280930850004308900220805
:1001E200023A031D172900302102031C1729210896
:1001F200003A031D01290330A1000330A200172990
:100202000930850002308900210888000630FB0091
:100212001330FC00AD30FD00FD0B0D29FC0B0D2948
:10022200FB0B0D2900000000A103F4282208033A69
:10023200031D1F290C308500013089002208043A71
:10024200031D462900302002031C46292008003ADB
:10025200031D2E290330A00046290A3085000130F3
:100262008900200887000630FB001330FC00AD3007
:10027200FD00FD0B3A29FC0B3A29FB0B3A29000041
:100282000000A0030130A2002329E62837284829CC
:1002F800203084002D3083120313F0004E30CD00DF
:080308000130CE001D200800A9
:02029C00033429
:02029E00033427
:0202A000003428
:0202A200003426
:1002A400153414341334123411341034093408342A
:1002B400073406340534043403340234013400347E
:0202C400003404
:1002C60023342234213420341934183417341634A4
:1002D60015341434133412341134103409340834F8
:1002E600073406340534043403340234013400344C
:02400E004A2F37
:00000001FF
